:020000040800F2
:10000000500F0020A13B0008C1050008C3050008EF
:10001000C7050008CB050008CF0500080000000058
:10002000000000000000000000000000D3050008F0
:10003000D505000800000000D7050008D905000814
:10004000BB3B0008BB3B0008BB3B0008BB3B0008B8
:10005000BB3B0008BB3B0008BB3B0008BB3B0008A8
:10006000BB3B0008BB3B0008BB3B0008BB3B000898
:10007000BB3B0008BB3B0008BB3B0008BB3B000888
:10008000BB3B0008BB3B0008BB3B0008BB3B000878
:10009000BB3B0008BB3B0008BB3B0008BB3B000868
:1000A000BB3B0008BB3B0008BB3B0008BB3B000858
:1000B00017040008BB3B000859080008BB3B0008B8
:1000C000BB3B0008BB3B0008BB3B0008BB3B000838
:1000D000BB3B000807080008EB030008BB3B000817
:1000E000BB3B0008BB3B0008BB3B000800F002F82C
:1000F00000F05FF80AA090E8000C82448344AAF163
:100100000107DA4501D100F054F8AFF2090EBAE860
:100110000F0013F0010F18BFFB1A43F0010318473B
:10012000F4460000144700000A444FF0000C10F899
:10013000013B13F0070408BF10F8014B1D1108BF65
:1001400010F8015B641E05D010F8016B641E01F805
:10015000016BF9D113F0080F1EBF10F8014BAD1C55
:100160000C1B09D16D1E58BF01F801CBFAD505E073
:1001700014F8016B01F8016B6D1EF9D59142D6D3CD
:10018000704700000023002400250026103A28BFF5
:1001900078C1FBD8520728BF30C148BF0B607047F9
:1001A000642903F05985002070471FB51FBD10B5A5
:1001B00010BD03F0DCFE1146FFF7F7FF00F07AF800
:1001C00003F0FAFE03B4FFF7F2FF03BC03F0FEFEF8
:1001D000002004E00021BB4A1154411C88B2C82809
:1001E000F8DB0021B84A1170704710B5044621466B
:1001F000B44803F031FE08B1012010BD0020FCE737
:100200002DE9F04104460D461646A046FFF7E0FFF3
:10021000002727E02846FFF7E8FFF8B9AB48007849
:1002200000BB44460BE000BF4021A94802F044FF58
:100230000028F9D02178A64802F0D0FE641C20786E
:100240000028F0D1A3A000F070FB0020A2490870A4
:10025000A248067001209D49087003E00127002094
:100260009A490870002FD5D0FFF7B2FFBDE8F081A2
:1002700010B503229AA19BA0FFF7C2FF9C4800F093
:1002800054FB1A21924802F0A9FE92A000F04DFB07
:1002900010BD10B5032297A197A0FFF7B1FF03226D
:1002A00094A198A0FFF7ACFF032292A199A0FFF7B9
:1002B000A7FF10BD00F060FB00F092F900F002FE15
:1002C0004FF4165000F030FA4FF4E13000F0D8FA55
:1002D00000F0BCFB00F0E8FB00F06AFC002000F03E
:1002E000D4FC96A1984803F07BFC0223964A002197
:1002F000084600F002FD0A21012000F03CFE93496F
:10030000088009889D2201FB02F0C11700EB115102
:1003100009138F4A1180104602888EA18A4803F083
:100320005FFC0223884A0021592000F0E6FC8BA1E3
:100330008F4803F055FC01238D4A0421002000F072
:10034000DCFCFFF7A6FF8BA1894803F049FC0123E1
:10035000874A0421002000F0D0FC8BA1844803F0E0
:100360003FFC0123824A0221002000F0C6FC00F07D
:100370001DFE01F017F90A21012000F0FCFD734970
:10038000088009889D2201FB02F0C11700EB115182
:1003900009136F4A1180104602886EA16A4803F063
:1003A0001FFC0223684A0021592000F0A6FC00200F
:1003B0007949086013E078480268521C77A16248C6
:1003C00003F00EFC0123604A0621002000F095FC9A
:1003D000FFF74EFF70480068401C6F4908606E4888
:1003E00000680628E7DB00BFFEE710B500243848A8
:1003F00002F0F8FDC4B23348334909784454324816
:100400000078401C3049087008460078C82801DD93
:100410000020087010BD10B50121880702F08DFC86
:1004200000B30121880702F099FC2848007820B128
:1004300029480078401C2849087027480078274937
:100440000978884204DD002020490870224908709C
:100450005748007818B100205549087002E0012083
:100460005349087010BD70B50025FFF7B1FE26E0B6
:10047000FFF7AEFE4FA000F058FA16A000F055FAB4
:1004800041F2883000F0AEFA002415E00D48005D1E
:100490003A280FD10B49201D085C312803D1601D7B
:1004A000085C332804D10749201D085C352801D198
:1004B000012503E0601CC4B2C82CE7DB00BF002D9F
:1004C000D6D070BD480500200100002003000020A8
:1004D000004400400D0A000000000020020000203F
:1004E0003E00000041542B43495053454E44000008
:1004F000680800204F4B000041542B43474154549F
:100500003D31000041542B43474143543D312C3190
:100510000000000041542B43495053544152543D74
:1005200022544350222C223131322E37342E35358D
:100530002E3532222C383030300000004261747485
:100540006572793A000000001006002004000020C7
:1005500006000020253032642025250047505253E4
:1005600020436F6E6E656374696E672E2E2E0000D9
:1005700020060020202020202020202020202020B5
:10058000202020202020000055706C6F61642044E2
:100590006174613A000000000C00002053656E6435
:1005A0003A2020202020202025642F360000000043
:1005B0001000002041542B435245473F00000000EB
:1005C000704700BFFEE700BFFEE700BFFEE700BFC9
:1005D000FEE770477047704710B500F026FA10BD6F
:1005E00010B56FF0040001F010F92E4800682E4994
:1005F000B0FBF1F02D4908700846007800EB40018F
:10060000C1EBC0104FF6FF7101EAC0002849088015
:1006100010BD0146254A12784A434FF0E0235A6143
:1006200000229A611A46126942F001021A6100BF63
:100630004FF0E022106900F001021AB100F480329C
:10064000002AF5D04FF0E022126922F001024FF0AB
:10065000E0231A6100229A6170470146144A128809
:100660004A434FF0E0235A6100229A611A46126908
:1006700042F001021A6100BF4FF0E022106900F061
:1006800001021AB100F48032002AF5D04FF0E022C6
:10069000126922F001024FF0E0231A6100229A61F0
:1006A000704700003405002000127A00120000207C
:1006B0001400002010B5044644B10021A84802F0FF
:1006C00007FB0121A64802F06FF803E00021A448CF
:1006D00002F06AF810BD7FB505460C4601210420E2
:1006E00001F0DBFBADF80450ADF800400020ADF8A0
:1006F0000600ADF802006946994801F0F9FC0122B4
:100700001146974802F06BF81E208DF80C0001206E
:100710008DF80D0002208DF80E0001208DF80F00DD
:1007200003A801F028F87FBD10B586B0044601216A
:1007300044F2040001F0A4FB8A4802F013FB4FF4DA
:100740000070ADF8140018208DF8170003208DF804
:10075000160005A9844801F0D7F84FF48060ADF881
:10076000140004208DF8170005A97F4801F0CCF88B
:1007700001940020ADF80800ADF80A00ADF80C00B7
:10078000ADF810000C20ADF80E0001A9754802F07C
:100790002CFB25208DF8000002208DF8010003209D
:1007A0008DF8020001208DF80300684600F0E3FF99
:1007B000012240F225516B4802F0AFFB012169484C
:1007C00002F09FFB4021674802F083FC41F61F4185
:1007D0006320FFF780FF0020FFF76CFF06B010BD1D
:1007E00010B504460BE000BF40215E4802F064FCF7
:1007F0000028F9D014F8011B5A4802F0EFFB2078CA
:100800000028F0D110BD10B540F22551554802F036
:1008100069FC00B3534802F0E5FBC4B253480088BA
:10082000C82812DA00214E4802F052FA4F480088D8
:1008300010B90120FFF73EFF4C4801880088401C9A
:100840004A4A10804A48445405E04848008840F429
:1008500000404649088010BD10B50121404802F013
:100860006CFA60B14148008840F400403F4908807C
:1008700001213B4802F072FA0020FFF71BFF10BD78
:1008800010B586B004460121480401F006FB0121A1
:10089000042001F0F5FA374802F064FA0420ADF8BC
:1008A000140018208DF8170003208DF8160005A9F4
:1008B0002D4801F029F80820ADF8140004208DF827
:1008C000170005A9284801F01FF801940020ADF891
:1008D0000800ADF80A00ADF80C00ADF810000C20CF
:1008E000ADF80E0001A9234802F07FFA26208DF80A
:1008F000000001208DF8010000208DF80200012089
:100900008DF80300684600F036FF012240F22551C1
:10091000184802F002FB0121164802F0F2FA4021C9
:10092000144802F0D6FB06B010BD10B504460BE02B
:1009300000BF40210F4802F0BFFB0028F9D014F897
:10094000011B0C4802F04AFB20780028F0D100BFC0
:100950004021084802F0B0FB0028F9D010BD00008B
:100960000008004000380140000801401A00002043
:10097000F80600200044004030B500BF2F48006852
:100980004FF47A72B0FBF2F1B1F1807F01D3012014
:100990001DE021F07F40401E4FF0E02250615017D3
:1009A0000F22002807DA13071D0E254B00F00F0455
:1009B000241F1D5503E013071C0E224B1C5400BFBF
:1009C00000204FF0E02290610720106100200028F5
:1009D000D4D14FF0E020006920F001004FF0E02179
:1009E000086130BD184908604FF0E021096941F005
:1009F00001014FF0E022116100BF1349096800298D
:100A0000FBD170474FF47A7141430F4A11604FF0A8
:100A1000E021096941F001014FF0E022116100BFBE
:100A2000094909680029FBD170470748006820B1CF
:100A300005480068401E04490860704734050020DE
:100A400018ED00E000E400E01C0000201FB50121CB
:100A5000084601F022FA42F20F70ADF8080041F6A4
:100A60001F40ADF804000020ADF80A00ADF8060004
:100A700001A94FF0804001F03BFB1C208DF80000E5
:100A800001208DF801008DF802008DF80300684602
:100A900000F071FE01221146900701F0A0FE012135
:100AA000880701F081FE1FBD00B585B00121480512
:100AB00001F0F3F90121082001F0E2F9C020ADF8BE
:100AC000000003208DF802001C208DF80300694609
:100AD000F44800F019FFF44802F048FB0020ADF89C
:100AE00008004BF6FF70ADF80A003020ADF80C009E
:100AF0004FF48060ADF80E000001ADF81000EB4837
:100B000001900121E84802F0C8FB01A9E64802F083
:100B100046FB05B000BD70B504460D4600BF4FF45E
:100B20000031E14802F0E0FC0028F8D10121DE4864
:100B300002F0D7FB00BFDE49DB4802F0B3FC00281F
:100B4000F9D000227821D84802F021FC00BFD94911
:100B5000D54802F0A7FC0028F9D02146D24802F07F
:100B600010FC00BFD349891CCF4802F09BFC002831
:100B7000F8D02946CC4802F004FC00BFCD49891CBE
:100B8000C94802F08FFC0028F8D00121C64802F0C5
:100B9000B4FB70BD10B5044621460020FFF7BBFF33
:100BA00010BD10B5044621464020FFF7B4FF10BD2C
:100BB00010B56420FFF751FDAE20FFF7EBFF2020BA
:100BC000FFF7E8FF1020FFF7E5FFB020FFF7E2FF97
:100BD000C820FFF7DFFF0020FFF7DCFF1020FFF742
:100BE000D9FF4020FFF7D6FF8120FFF7D3FFFF207A
:100BF000FFF7D0FFA120FFF7CDFFA620FFF7CAFF28
:100C0000A820FFF7C7FF3F20FFF7C4FFA420FFF78E
:100C1000C1FFD320FFF7BEFF0020FFF7BBFFD520A9
:100C2000FFF7B8FFF020FFF7B5FFD920FFF7B2FFBD
:100C30002220FFF7AFFFDA20FFF7ACFF1220FFF70B
:100C4000A9FFDB20FFF7A6FF2020FFF7A3FF8D20E1
:100C5000FFF7A0FF1420FFF79DFFAF20FFF79AFFDB
:100C600010BD70B504460D4605F1B001C8B2FFF7DE
:100C700091FF102141EA1410FFF78CFF04F00F01DF
:100C800041F00100FFF786FF70BD70B506460024F5
:100C900015E004F1B001C8B2FFF77CFF0020FFF7B8
:100CA00079FF1020FFF776FF002504E03046FFF7BC
:100CB00078FF681CC5B2802DF8DB601CC4B2082C1C
:100CC000E7DB70BD10B50020FFF7DFFF10BD10B5EA
:100CD0008D20FFF75FFF1420FFF75CFFAF20FFF7C9
:100CE00059FF10BD10B58D20FFF754FF1020FFF7FE
:100CF00051FFAE20FFF74EFF10BD2DE9F04706462D
:100D0000894617469A464FF0000800240025BAF19C
:100D1000010F03D0BAF1020F5ED125E020E0785D2B
:100D2000203800F0FF087E2E04DD002609F10100C6
:100D300000F0FF0949463046FFF793FF002409E021
:100D400008EB48015C4A02EB4101085DFFF729FF0F
:100D5000601CC4B2062CF3DBB01DC6B2681CC5B261
:100D6000785D0028DBD137E032E0785D203800F094
:100D7000FF08782E04DD002609F1010000F0FF09CC
:100D800049463046FFF76DFF002407E004EB0811E9
:100D90004A4A505CFFF705FF601CC4B2082CF5DB23
:100DA00009F10100C1B23046FFF75BFF002408E003
:100DB00004EB08110831414A505CFFF7F2FE601C59
:100DC000C4B2082CF4DB06F10800C6B2681CC5B238
:100DD000785D0028C9D100BF00BFBDE8F0872DE9CC
:100DE000F04180460E46174600247D0131464046BC
:100DF000FFF737FF00BF06E03149485DFFF7D1FE3E
:100E00006D1C601CC4B2102CF6DB701CC1B24046D5
:100E1000FFF727FF002406E02949485DFFF7C1FEE0
:100E20006D1C601CC4B2102CF6DBBDE8F0812DE90E
:100E3000F05F06460F4690461C46DDF828A04FF0AE
:100E4000000BE11704EB5171C910A4EBC10131B9DA
:100E50002046E11704EB5171C1F3C70506E02046B7
:100E6000E11704EB5171C910491CCDB23D4614E0A5
:100E700029463046FFF7F5FEB1460AE059460BF128
:100E8000010B1AF80100FFF78CFE09F1010000F0D8
:100E9000FF09C145F2DB681CC5B2A542E8DBBDE82D
:100EA000F09F0000000C014000540040801A060032
:100EB0000100030082000700E83F0008104200081C
:100EC0002000002000B587B001214FF4017000F030
:100ED000D7FF4FF4004000F037FF0220ADF80400C8
:100EE00000208DF8070001A92E4800F00DFD2E48C6
:100EF00002F03EFB002002908DF80C008DF80D00F2
:100F00004FF4602004900020059001208DF8180017
:100F100002A9254802F053FB0121234802F07BFB84
:100F2000214802F09AFB00BF1F4802F09BFB0028FB
:100F3000FAD11D4802F0A0FB00BF1B4802F0A1FB44
:100F40000028FAD107B000BD10B5044607230122DE
:100F50002146154802F0CBFB0121134802F09BFB10
:100F600000BF0221104802F007FD0028F9D00E480A
:100F700002F024FC10BD2DE9F04107460C46002587
:100F8000002608E03846FFF7DFFF05440520FFF79D
:100F900064FB701CC6B2A642F4DBB5FBF4F080B271
:100FA000BDE8F081000801400024014010B50BE0CD
:100FB000FB48FFF715FCFB48008800F4004000B137
:100FC00003E06420FFF749FBF2E700BF44E0F64886
:100FD000FFF706FCF348008800F40040002838D0F2
:100FE000F0480078F14908700020F149EF4A127882
:100FF0008854EC490880EF49086022E0EC48ED494C
:101000000968405CEC490860084600680F2813D165
:10101000E749E8480068401C085CE7490860084662
:10102000E6A10268EA4802F0DBFD0123E84A032159
:101030000020FFF762FE0AE0DE480068401CDD4940
:101040000860DC480068D94909788842D6DB00BFCF
:1010500003E06420FFF701FBB9E700BF5FE0DD4874
:10106000FFF7BEFBCF48008800F40040002853D0B3
:10107000CC480078CD4908700021CD48CB4A127881
:1010800081540020C7490880CA4908603CE0C8482C
:10109000C8490968405CC849086008460068B42827
:1010A0002DD1C349C3480068401C085CCA49086088
:1010B000BF49C0480068801C085CC7494860BC49FB
:1010C000BC480068C01C085CC3498860B849B9487E
:1010D0000068001D085CC049C860B549B548006893
:1010E000401D085CBC490861BCA1B94802F078FD0C
:1010F0000123B74A04210020FFF7FFFD0AE0AD48B5
:101100000068401CAB490860AA480068A7490978F4
:101110008842BCDB00BF03E06420FFF79EFA9EE735
:1011200000BF5EE0B248FFF75BFB9E48008800F41A
:101130000040002852D09B4800789C49087000204D
:101140009B499A4A127888549649088099490860C0
:101150003CE0974897490968405C97490860084611
:10116000006883282DD1924992480068401C085C91
:10117000A04908608E498F480068801C085C9D4922
:1011800048608B498B480068C01C085C994988609E
:10119000874988480068001D085C9649C8608449F2
:1011A00084480068401D085C9249086192A1884803
:1011B00002F016FD0123864A04210020FFF79DFD61
:1011C0000AE07C480068401C7A4908607948006859
:1011D000764909788842BCDB00BF03E06420FFF752
:1011E0003CFA9FE700BF5EE08848FFF7F9FA6D48D8
:1011F000008800F40040002852D06A4800786B490B
:10120000087000206A49694A127888546549088044
:10121000684908603CE0664866490968405C664980
:1012200008600846006806282DD1614961480068B9
:10123000401C085C764908605D495E480068801C77
:10124000085C734948605A495A480068C01C085CE9
:101250006F498860564957480068001D085C6C4912
:10126000C860534953480068401D085C68490861DC
:1012700068A1574802F0B4FC0123554A042100201C
:10128000FFF73BFD0AE04B480068401C49490860F5
:1012900048480068454909788842BCDB00BF03E044
:1012A0006420FFF7DAF99FE700BF5EE05E48FFF7D2
:1012B00097FA3C48008800F40040002852D0394892
:1012C00000783A49087000203949384A1278885421
:1012D00034490880374908603CE035483549096899
:1012E000405C354908600846006831282DD13049F6
:1012F00030480068401C085C4C4908602C492D4867
:101300000068801C085C49494860294929480068F0
:10131000C01C085C45498860254926480068001DB6
:10132000085C4249C860224922480068401D085CA8
:101330003E4908613EA1264802F052FC0123244A9E
:1013400004210020FFF7D9FC0AE01A480068401C7D
:101350001849086017480068144909788842BCDBBE
:1013600000BF03E06420FFF778F99FE700BFB3E018
:101370003448FFF735FA0B48008800F40040002895
:101380000DD0084800780949087000200849074A2C
:1013900012788854034908800649086091E098E073
:1013A000C80400201A000020DA04002008000020F1
:1013B000F8060020C0040020C404002044617461C9
:1013C000204E756D3A202020253033640000000047
:1013D000CC08002016050020C0070020526561647B
:1013E000696E673A2020202020312F36000000004F
:1013F0000C050020D407002052656164696E673ACD
:101400002020202020322F3600000000020500207E
:10141000E807002052656164696E673A2020202049
:1014200020332F3600000000F8040020FC070020C5
:1014300052656164696E673A2020202020342F367F
:1014400000000000EE040020A248A3490968405CA7
:10145000A24908600846006868282DD19D499E4829
:101460000068401C085C9E4908609A499A480068D8
:10147000801C085C9A494860964997480068C01CDF
:10148000085C97498860934993480068001D085C90
:101490009349C8608F4990480068401D085C904996
:1014A000086190A1944802F09BFB0123924A042119
:1014B0000020FFF722FC0AE087480068401C8649AC
:1014C0000860854800688D4909788842BCDB00BF08
:1014D00003E06420FFF7C1F84AE700BF5FE08848F7
:1014E000FFF77EF98748008800F40040D8B38548AC
:1014F00000788249087000207649804A1278885422
:1015000080490880744908603EE072487249096861
:10151000405C72490860084600685F282FD16D4919
:101520006D480068401C085C7749086069496A4852
:101530000068801C085C7449486066496648006819
:10154000C01C085C70498860624963480068001DDF
:10155000085C6D49C8605F495F480068401D085CD1
:101560006949086100E017E068A1634802F038FBB0
:101570000123614A04210020FFF7BFFB0AE056481F
:101580000068401C54490860534800685B4909786A
:101590008842BADB00BF03E06420FFF75EF89EE7F5
:1015A00000BF10BD10B55E480168406801EB002126
:1015B0005B48008901EB00415948007B01EB00606A
:1015C0005849086058480168406801EB00215648B6
:1015D000008901EB00415448007B01EB0060514958
:1015E000486052480168406801EB00214F4800897B
:1015F00001EB00414D48007B01EB006049498860E8
:101600004B480168406801EB00214948008901EB23
:1016100000414748007B01EB00604249C860304808
:101620000168406801EB00212D48008901EB004171
:101630002B48007B01EB00603A49086132480168A1
:10164000406801EB00213048008901EB00412E4841
:10165000007B01EB0060334948613148006935493E
:101660000860314800694860304800698860304847
:101670000069C8601A480069086123480069486128
:101680000020154908601FE026481349096850F8F2
:10169000213028481049096850F8212026A12D48FA
:1016A00002F09EFA0C480268521C2BA1124802F06C
:1016B00097FA0123104A05210020FFF71EFB064878
:1016C0000068401C04490860034800680628DBDB0A
:1016D00010BD0000F8060020C0040020C404002053
:1016E0001008002052656164696E673A202020204E
:1016F00020352F3600000000CC0800200800002014
:10170000E40400201A0000202408002052656164CF
:10171000696E673A2020202020362F360000000016
:10172000C007002038080020D4070020E807002068
:10173000FC070020500800204D313030332F313568
:101740003532383039333639372F25642F256C64DC
:1017500000000000680800205472616E73666F72AA
:101760006D3A20202025642F3600000031490143C6
:10177000314A1160704770B5002100230F22C478F0
:1017800004B32D4C246804F4E064C4F5E064210A39
:10179000C1F10403CA40447804FA03F18478144088
:1017A00021430901254C0678A155047804F01F0552
:1017B0000124AC4005786D11AD0005F1E025C5F8B8
:1017C000004109E0047804F01F050124AC401C4DE1
:1017D0000678761145F8264070BD1A4A0A40024341
:1017E000154B1B1F1A60704739B1134A121D12683E
:1017F0000243114B1B1D1A6006E00F4A121D1268AE
:1018000082430D4B1B1D1A607047042808D14FF00E
:10181000E021096941F004014FF0E022116107E085
:101820004FF0E021096921F004014FF0E02211613D
:10183000704700000000FA050CED00E000E400E055
:1018400080E100E080FFFF1F10B50446CC488442D1
:1018500008D10121042000F02DFB0021042000F01C
:1018600029FB46E0C748844208D10121082000F046
:1018700021FB0021082000F01DFB3AE0C248844211
:1018800008D10121102000F015FB0021102000F0EC
:1018900011FB2EE0BD48844208D10121202000F038
:1018A00009FB0021202000F005FB22E0B84884421B
:1018B00008D10121402000F0FDFA0021402000F075
:1018C000F9FA16E0B348844208D10121802000F0E3
:1018D000F1FA0021802000F0EDFA0AE0AE488442DF
:1018E00007D10121801500F0E5FA0021A01500F0D4
:1018F000E1FA10BD10B50121084600F0DBFA002125
:10190000012000F0D7FA10BD2DE9F0410246002574
:101910000026002000230024002791F803C00CF0CB
:101920000F0591F803C00CF0100CBCF1000F03D0B0
:1019300091F802C04CEA050591F800C0BCF1000F17
:1019400031D0146800202BE04FF0010C0CFA00F3AA
:10195000B1F800C00CEA03069E4220D183004FF08C
:101960000F0C0CFA03F7BC4305FA03FC4CEA040421
:1019700091F803C0BCF1280F06D14FF0010C0CFA0E
:1019800000FCC2F814C00AE091F803C0BCF1480F93
:1019900005D14FF0010C0CFA00FCC2F810C0401C3D
:1019A0000828D1D31460B1F800C0BCF1FF0F34DDBA
:1019B000546800202EE000F1080C4FF0010808FAEE
:1019C0000CF3B1F800C00CEA03069E4221D183005B
:1019D0004FF00F0C0CFA03F7BC4305FA03FC4CEA7A
:1019E000040491F803C0BCF1280F05D100F1080CE4
:1019F00008FA0CF8C2F8148091F803C0BCF1480F43
:101A000007D100F1080C4FF0010808FA0CF8C2F8F1
:101A10001080401C0828CED35460BDE8F0814FF6FA
:101A2000FF710180022181700421C170704702465C
:101A3000002093680B400BB1012000E000207047AC
:101A40000146886880B2704702460020D3680B4088
:101A50000BB1012000E0002070470146C86880B249
:101A6000704701617047416170470AB1016100E050
:101A700041617047C16070474FF480320A43826110
:101A80008161826182698269704702460020434B0E
:101A900018684FF68073184040EA021008433F4B25
:101AA000186070473E49C8617047F0B50A46002388
:101AB00000240021002500F00046B6F1004F02D1BD
:101AC000364EF16901E0354E7168C0F3034583B2CB
:101AD00000F44016B6F5401F08D121F070612F4E7A
:101AE000766826F070662D4F7E6012E000F4801656
:101AF000B6F5801F06D1032606FA05F4A14341F08E
:101B0000706106E0460D360103FA06F6B14341F076
:101B1000706122B1460D360103FA06F6314300F03A
:101B20000046B6F1004F02D11C4EF16101E01B4EA0
:101B30007160F0BD30B500228B071C0F0F2303FA34
:101B400004F2164B08338C1053F824309343134C93
:101B500008348D1044F8253023468C1053F8243077
:101B60008C07240F00FA04F423430C4C08348D1026
:101B700044F8253030BD0A49DC3108607047000068
:101B800000080140000C0140001001400014014019
:101B900000180140001C01400020014000000140ED
:101BA00000002042DF48006840F00100DD49086085
:101BB00008464068DC490840DA4948600846006841
:101BC000DA490840D74908600846006820F48020B8
:101BD00008600846406820F4FE0048604FF41F008B
:101BE00088607047CF49096821F48031CD4A11607F
:101BF0001146096821F480211160B0F5803F03D0BF
:101C0000B0F5802F0ED106E0C649096841F4803155
:101C1000C44A116007E0C349096841F4A021C14AE0
:101C2000116000E000BF00BF704710B50146002200
:101C3000002300204A11012A02D1BA4C236806E091
:101C4000022A02D1B74C236A01E0B64C636A01F064
:101C50001F02012494401C400CB1012000E0002030
:101C600010BD38B5002000900024002500BF3120B1
:101C7000FFF7DBFF05460098401C00900098B0F588
:101C8000A06F01D0002DF2D03120FFF7CEFF08B1B8
:101C9000012400E00024204638BD01460020A14A6E
:101CA000106820F0F80040EAC10010607047A049B9
:101CB00008607047024600209A4B586820F47C1058
:101CC00042EA01031843974B5860704798490866E9
:101CD000704701460020934A506820F003000843F3
:101CE000506070478F48406800F00C007047014614
:101CF00000208C4A506820F0F00008435060704784
:101D000001460020874A506820F4E0600843506094
:101D1000704701460020834A506820F4605040EA32
:101D2000C1005060704729B17E4A527A02437D4B10
:101D30005A7204E07B4A527A82437A4B5A72704755
:101D40007B49D8310860704701460020754A5068C9
:101D500020F440400843506070470021714A20320F
:101D60001170704A82F82010012802D004280AD18C
:101D700004E001216B4A2032117005E00521694A17
:101D80002032117000E000BF00BF70476949086051
:101D900070476449096A0143624A116270476549A4
:101DA00044390860704730B5002100220024002328
:101DB0005C4D6D6805F00C0121B1042905D008299E
:101DC00023D105E05C4D056022E05B4D05601FE01E
:101DD000544D6D6805F47012524D6D6805F48034F1
:101DE000022505EB92421CB9544D554305600BE0AA
:101DF0004C4D6D6805F400351DB1504D55430560DF
:101E000002E04D4D5543056002E04B4D056000BFBB
:101E100000BF444D6D6805F0F0010909484D6B5C49
:101E20000568DD4045603F4D6D6805F4E061090AD5
:101E3000434D6B5C4568DD4085603A4D6D6805F447
:101E40006051C90A3E4D6B5C4568DD40C560354D4B
:101E50006D6805F44041890B3A4D6B5CC568B5FB74
:101E6000F3F5056130BD29B12E4A526902432D4B6D
:101E70005A6104E02B4A526982432A4B5A617047E7
:101E800029B1284A92690243264B9A6104E0254A07
:101E900092698243234B9A61704729B1214AD269E2
:101EA0000243204BDA6104E01E4AD26982431D4B93
:101EB000DA61704729B11B4AD2680243194BDA60D4
:101EC00004E0184AD2688243164BDA60704729B1A1
:101ED000144A12690243134B1A6104E0114A126951
:101EE0008243104B1A6170471249403908607047AD
:101EF0000F49C86470470B49C87170470948406A68
:101F000040F0807007494862704701460020054A4A
:101F100092680A400AB1012000E0002070470149A0
:101F200088727047001002400000FFF8FFFFF6FEC5
:101F3000000042428004424200127A0000093D0043
:101F4000200500203005002010B50446FE488442DC
:101F500008D10121C014FFF7ADFF0021E014FFF705
:101F6000A9FFC4E0B4F1804F08D101210846FFF772
:101F7000AEFF00210120FFF7AAFFB8E0F34884423A
:101F800008D101210220FFF7A2FF00210220FFF764
:101F90009EFFACE0EE48844208D101210420FFF707
:101FA00096FF00210420FFF792FFA0E0E948844259
:101FB00008D101210820FFF78AFF00210820FFF740
:101FC00086FF94E0E448844208D101211020FFF705
:101FD0007EFF00211020FFF77AFF88E0DF4884426F
:101FE00008D101212020FFF772FF00212020FFF7F8
:101FF0006EFF7CE0DA48844208D101214014FFF7EB
:1020000059FF00216014FFF755FF70E0D548844266
:1020100009D10121C804FFF74DFF00214FF4002032
:10202000FFF748FF63E0D048844209D10121080549
:10203000FFF740FF00214FF48010FFF73BFF56E011
:10204000CA48844209D101214805FFF733FF002126
:102050004FF40010FFF72EFF49E0C548844208D135
:1020600001214020FFF733FF00214020FFF72FFF21
:102070003DE0C048844208D101218020FFF727FFBE
:1020800000218020FFF723FF31E0BB48844208D1C4
:1020900001218015FFF71BFF0021A015FFF717FF97
:1020A00025E0B648844209D101210804FFF702FF68
:1020B00000214FF48030FFF7FDFE18E0B048844265
:1020C00009D101214804FFF7F5FE00214FF400304B
:1020D000FFF7F0FE0BE0AB48844208D101218804F1
:1020E000FFF7E8FE00214FF48020FFF7E3FE10BD6C
:1020F00000220288944B98420ED0994B98420BD004
:10210000B0F1804F08D0914B984205D0904B984247
:1021100002D0904B984204D14FF68F731A404B88EF
:102120001A438D4B984207D08C4B984204D04FF6FF
:10213000FF431A40CB881A4302808B8883850B8823
:102140000385814B98420BD0854B984208D08B4B2E
:10215000984205D08A4B984202D08A4B984201D1CE
:102160000B7A038601238382704770B50024002216
:102170000023058C4FF6FE7635400584028C83885B
:10218000048B4FF68F752C40B51E2C400D882C43C8
:10219000751E2A400D892A434D882A436A4DA8425C
:1021A0000BD06F4DA84208D0744DA84205D0744D95
:1021B000A84202D0734DA84213D14FF6F7752A40BA
:1021C0004D892A434FF6FB752A408D882A434FF6E6
:1021D000FF652B404FF6FF552B408D892B43CD8952
:1021E0002B4383800483CD888586028470BD70B5BF
:1021F000002400220023058C4FF6EF76354005843D
:10220000028C8388048B48F6FF752C404FF6FF45FF
:102210002C400D884FF6FF7606EA05252C434FF635
:10222000DF752A400D8906EA05152A434D8806EA1E
:1022300005152A43444DA84202D0494DA8421DD15C
:102240004FF67F752A404D894FF6FF7606EA051551
:102250002A434FF6BF752A408D8806EA05152A43A2
:102260004FF6FF352B404FF2FF752B408D8906EA64
:1022700085052B43CD8906EA85052B43838004839E
:10228000CD880587028470BD70B50024002200232C
:10229000058C4FF6FF6635400584028C8388848B5D
:1022A0004FF68F752C404FF6FC752C400D882C4353
:1022B0004FF6FF552A400D894FF6FF7606EA0525B1
:1022C0002A434D8806EA05252A431F4DA84202D01D
:1022D000234DA8421DD14FF2FF752A404D894FF67C
:1022E000FF7606EA05252A434FF6FF352A408D88FA
:1022F00006EA05252A434EF6FF752B404DF6FF757D
:102300002B408D8906EA05152B43CD8906EA051574
:102310002B4383808483CD888587028470BD70B50C
:10232000002200230024058C4EF6FF7635400584FC
:10233000038C8488828B48F6FF752A404FF6FF4550
:102340002A400D8820E00000002C014000040040DD
:1023500000080040000C0040001000400014004045
:1023600000340140004C0140005001400054014045
:1023700000180040001C00400020004000400140C8
:1023800000440140004801404FF6FF7606EA05256B
:102390002A434DF6FF752B400D8906EA05352B4380
:1023A0004D8806EA05352B43FA4DA84202D0FA4D76
:1023B000A84208D14BF6FF752C408D894FF6FF7669
:1023C00006EA85152C4384808283CD88A0F840508E
:1023D000038470BD828B4FF2FF331A408283828B5D
:1023E0004FF6FF7303EA01231A4382837047F0B567
:1023F0000C461546002200210026078C4EF6FF7C75
:1024000007EA0C070784828B018C4FF6FF7707EAF7
:10241000043640F6FF473A404FF6FF7707EA0527B4
:102420003A434FF6FF7707EA03373A43D94FB842AA
:102430000ED0D94FB8420BD0B0F1804F08D0D74F53
:10244000B84205D0D64FB84202D0D64FB84206D1D6
:102450004DF6FF77394046F48057394305E047F69B
:10246000FF57394044F48057394382830184F0BDDB
:10247000828B4FF6F3731A408283828B0A438283E6
:102480007047F0B50C461546002200210026078C47
:102490004FF6FF6C07EA0C070784828B018C4FF61E
:1024A000FF7707EA04264FF60C773A404FF6FF779E
:1024B00007EA03172F433A43B64FB8420ED0B64F40
:1024C000B8420BD0B0F1804F08D0B44FB84205D01D
:1024D000B34FB84202D0B34FB84206D14FF6FF57C0
:1024E000394046F48077394305E04FF2FF573940D1
:1024F00044F48077394382830184F0BD028B4FF22C
:10250000FF331A400283028B4FF6FF7303EA012365
:102510001A4302837047F0B50C461546002200218D
:102520000026078C4FF6EF7C07EA0C070784028B26
:10253000018C4FF6FF7707EA041640F6FF473A4052
:102540004FF6FF7707EA03373A434FF6FF7707EA7C
:1025500005273A438F4FB8420ED08F4FB8420BD069
:10256000B0F1804F08D08D4FB84205D08C4FB842A3
:1025700002D08C4FB84206D14FF6DF77394046F093
:102580001007394305E04FF65F77394044F01007F4
:10259000394302830184F0BD028B4FF6F3731A4076
:1025A0000283028B0A4302837047F0B50C4615463E
:1025B00000220021068C4FF6FE773E400684028BF7
:1025C000018C4FF60C7632407E1C06EA03162E4331
:1025D0003243704EB0420ED06F4EB0420BD0B0F1CD
:1025E000804F08D06D4EB04205D06D4EB04202D043
:1025F0006C4EB04206D14FF6FD76314044F00106F4
:10260000314305E04FF6F576314044F001063143A1
:1026100002830184F0BD70B505460C465D488542D5
:102620000ED05D4885420BD0B5F1804F08D05B4895
:10263000854205D05A48854202D05A48854200D189
:1026400000E000BF208850B92389A288618828460D
:10265000FFF7ABFFE1882846FFF79EFF25E02088C3
:1026600004280AD12389A28861882846FFF753FFEE
:10267000E1882846FFF742FF17E0208808280AD1A2
:102680002389A28861882846FFF7FBFEE188284657
:10269000FFF7EEFE09E02389A28861882846FFF74C
:1026A000A6FEE1882846FFF795FE70BD2DE9F041B2
:1026B00005460C4600260127608808B9022600E07E
:1026C0000026A088012801D1022700E001272088E8
:1026D000A0B92389A28861882846FFF766FFE188B0
:1026E0002846FFF759FF23893A4631462846FFF727
:1026F00012FFE1882846FFF701FF13E02389A28833
:1027000061882846FFF707FFE1882846FFF7F6FEB5
:1027100023893A4631462846FFF747FFE188284695
:10272000FFF73AFFBDE8F0810A884B881A438B888F
:102730001A43CB881A430B891A434B891A438B8956
:102740001A43A0F8442070474FF6FF7181800021A2
:102750000180C18041800172704700210180418069
:102760008180C180018141818181C18170470021C7
:1027700001804180012181800021C1800181704759
:102780000021018041808180C1800181418181815E
:1027900070470000002C014000340140000400405C
:1027A00000080040000C004021B1028842F0010204
:1027B000028004E002884FF6FE731A4002807047E0
:1027C00031B1B0F8442042F40042A0F8442005E0C2
:1027D000B0F84420C2F30E02A0F8442070471AB1AA
:1027E00083890B43838102E083898B438381704714
:1027F0008182704741EA0203A0F8483070471AB15D
:1028000083890B43838102E083898B4383817047F3
:1028100001894FF6F8721140018170470A46002184
:1028200001894FF68F73194011430181704730B50C
:1028300004460D4629462046FFF7F0FF208940F068
:102840000700208130BD2DE9F04104460D461646B3
:102850001F46602D06D13B46012231462046FFF738
:102860005AFE05E03B46012231462046FFF79DFE19
:1028700029462046FFF7D2FF208940F0070020813B
:10288000BDE8F08130B50C4600210189C9B24FF690
:10289000FF7505EA0325154325432943018130BD12
:1028A0002DE9F04105460E4617469846002443465A
:1028B0003A4631462846FFF7E5FF2C894FF6F87077
:1028C000044044F007044FF68F70044044F0700455
:1028D0002C81BDE8F081F0B504460D4616461F4632
:1028E0003B46324629462046FFF7CCFF208940F47C
:1028F00080402081F0BD0185828270470A46002118
:1029000001884FF68F731940114301807047F0B56D
:102910000C4615461E460021002200230189028B29
:10292000038C4FF6F877394021434FF6FC473A4085
:1029300040F201173A434FF6DD773B404FF6FF7701
:1029400007EA06172F433B43018102830384F0BD4E
:102950000A460021018B4FF68F7319401143018302
:1029600070470A460021018B48F6FF7319404FF665
:10297000FF7303EA02231943018370470A460021CB
:10298000818B4FF68F7319401143818370470A463C
:102990000021818B48F6FF7319404FF6FF7303EA5D
:1029A000022319438183704721B1028842F08002DB
:1029B000028004E002884FF67F731A40028070475D
:1029C00021B1828842F00402828004E082884FF6BE
:1029D000FB731A408280704721B1828842F008025E
:1029E000828004E082884FF6F7731A408280704735
:1029F00021B1828842F00102828004E082884FF691
:102A0000FE731A40828070470A460021018B4FF600
:102A1000F77319401143018370470A460021018B67
:102A20004FF2FF7319404FF6FF7303EA0223194375
:102A3000018370470A460021818B4FF6F7731940D6
:102A40001143818370470A460021818B4FF2FF7347
:102A500019404FF6FF7303EA02231943818370473D
:102A60000A460021018B4FF6FB7319401143018385
:102A700070470A460021018B4FF6FF3319404FF68D
:102A8000FF7303EA02231943018370470A460021BA
:102A9000818B4FF6FB7319401143818370470A46BF
:102AA0000021818B4FF6FF3319404FF6FF7303EA85
:102AB00002231943818370470A460021018B4FF698
:102AC0007F7319401143018370470A460021018B2F
:102AD000C1F30E014FF6FF7303EA0223194301838A
:102AE00070470A460021818B4FF67F7319401143CE
:102AF000818370470A460021818BC1F30E014FF696
:102B0000FF7303EA02231943818370470A460021B9
:102B1000018C4FF6FD7319401143018470470A463A
:102B20000021018C4FF6F77319401143018470475F
:102B30000A460021018C4FF6DF7319404FF6FF73F0
:102B400003EA02131943018470470A460021018CED
:102B50004FF67F7319404FF6FF7303EA02131943D0
:102B6000018470470A460021018C4FF6FF5319403B
:102B70004FF6FF7303EA02231943018470470A46A4
:102B80000021018C4FF2FF7319404FF6FF7303EAE7
:102B900002231943018470470A460021018C4DF637
:102BA000FF7319404FF6FF7303EA023319430184A0
:102BB000704730B5002301248C40A3B2048C9C43A1
:102BC0000484048C02FA01F5ADB22C43048430BDB8
:102BD00030B5002304248C40A3B2048C9C430484AD
:102BE000048C02FA01F5ADB22C43048430BD70B5FB
:102BF0000346002000241846183001258D40ACB251
:102C00001D8CA5431D8409B1082909D100EB610081
:102C1000056825F0700505600568154305600EE040
:102C20000D1FC5F34E052844056825F4E0450560F1
:102C300005684FF6FF7606EA02263543056070BD4B
:102C400021B1028842F00202028004E002884FF6BD
:102C5000FD731A400280704721B1028842F00402DD
:102C6000028004E002884FF6FB731A40028070472E
:102C700021B1828842F08002828004E082884FF68F
:102C80007F731A408280704702884FF6F7731A40AC
:102C9000028002880A430280704782884FF68F7351
:102CA0001A40828082880A438280704702894FF6E8
:102CB000F8731A40028102890A430281704702892F
:102CC0004FF67F731A40028102890A4302817047DE
:102CD000818470478185704781867047018770477E
:102CE00081877047A0F84010704702884FF6FF4375
:102CF0001A40028002880A43028070470146888E8B
:102D000070470146088F70470146888F704701461B
:102D1000B1F8400070470146888C70470146088D25
:102D2000704702460020138A0B400BB1012000E0DF
:102D300000207047CA430282704730B50246002027
:102D400000230024158A05EA0103958905EA010498
:102D500013B10CB1012000E0002030BDCA43028253
:102D60007047000010B50446FB48844209D1012198
:102D70008803FFF79FF800214FF48040FFF79AF88F
:102D800032E0F648844209D101214804FFF79FF858
:102D900000214FF40030FFF79AF825E0F048844214
:102DA00009D101218804FFF792F800214FF4802017
:102DB000FFF78DF818E0EB48844209D10121C804DF
:102DC000FFF785F800214FF40020FFF780F80BE0B3
:102DD000E548844208D101210805FFF778F8002171
:102DE0004FF48010FFF773F810BD2DE9F04786B05F
:102DF00005460E460024A24600BFA1460027B08922
:102E000000B100BF2F462C8A4CF6FF700440F088BA
:102E100004432C82AC894EF6F3100440B08831890B
:102E20000843718908430443AC81AC8A4FF6FF40E4
:102E30000440B0890443AC8201A8FEF7B4FFC64841
:102E4000874202D1DDF810A001E0DDF80CA0A889CE
:102E500000F4004040B10AEBCA0000EB0A103168F0
:102E60004900B0FBF1F807E00AEBCA0000EB0A10DA
:102E700031688900B0FBF1F86420B8FBF0F0040180
:102E80002009642101FB1089A88900F4004040B1A9
:102E9000322000EBC900B0FBF1F000F00700044362
:102EA00008E0322000EB09106421B0FBF1F000F0E3
:102EB0000F0004432C8106B0BDE8F0874FF4165193
:102EC000016000218180C18001810C2141810021AC
:102ED0008181704710B502460020108A4FF2FF032F
:102EE00018400B884C8823438C882343CC88234389
:102EF0001843108210BD0021018041808180C18073
:102F0000704721B1828942F40052828104E08289B3
:102F10004DF6FF731A4082817047F0B503460024D6
:102F200000260025002040F66A17B94200D100BFF4
:102F30001846C1F3421401F01F06012707FA06F5EF
:102F4000012C01D10C3004E0022C01D1103000E042
:102F500014301AB107682F43076002E00768AF43D7
:102F60000760F0BD1AB1838A0B43838202E0838A33
:102F70008B4383827047028A4FF6F0731A400282B5
:102F8000028A0A430282704782894FF2FF731A4015
:102F9000828182890A438281704721B1828942F00D
:102FA0000202828104E082894FF6FD731A40828119
:102FB0007047028A4FF6DF731A400282028A0A4380
:102FC0000282704721B1028A42F48042028204E008
:102FD000028A4BF6FF731A4002827047C1F308025F
:102FE0008280704701468888C0F308007047818955
:102FF00041F0010181817047028BD2B20283028BC2
:1030000042EA012202837047028B02F47F4202836C
:10301000028B0A430283704721B1828A42F0200268
:10302000828204E0828A4FF6DF731A408282704700
:1030300021B1828A42F01002828204E0828A4FF635
:10304000EF731A408282704721B1828A42F00802EF
:10305000828204E0828A4FF6F7731A4082827047B8
:1030600021B1828942F40042828103E08289C2F365
:103070000E028281704721B1828A42F4006282820C
:1030800004E0828A4FF2FF731A4082827047828A7C
:103090004FF6FB731A408282828A0A43828270470B
:1030A00021B1828A42F00202828204E0828A4FF6D3
:1030B000FD731A408282704702460020B1F5007FFE
:1030C00000D100BF13880B400BB1012000E00020AD
:1030D000704701F40072B2F5007F00D100BFCA430F
:1030E0000280704770B502460024002300250020AE
:1030F00040F66A16B14200D100BFC1F3421501F09B
:103100001F03012606FA03F3012D02D196893340ED
:1031100006E0022D02D1168A334001E0968A334040
:103120000C12012606FA04F41688344013B10CB1CF
:10313000012000E0002070BD10B50022002340F601
:103140006A14A14200D100BF0A1201249440A3B224
:10315000DC43048010BD0000003801400044004002
:1031600000480040004C00400050004010B50446AC
:10317000F748844209D101214805FEF7A8FE002145
:103180004FF40010FEF7A3FE08E001218805FEF7CA
:103190009EFE00214FF48000FEF799FE10BD2DE940
:1031A000F04385B004460D460026B1460427DFF8FB
:1031B000A483A6884FF6C07006406846FEF7F3FD6C
:1031C000DDF80880E448B8FBF0F01FFA80F946EA21
:1031D0000906A68020884FF6FE7108402080002650
:1031E000DE49286888420CD828684000B8FBF0F017
:1031F00087B2042F00DA04273E4309F1010020843E
:1032000027E0E8884BF6FF71884206D1286800EB7A
:103210004000B8FBF0F087B209E0286800EBC0017D
:1032200001EB0010B8FBF0F087B247F48047C7F31A
:103230000B0008B947F0010747F4004006434FF47C
:10324000967009FB00F04FF47A7190FBF1F0401C8E
:103250002084A683208840F00100208026884FF635
:10326000F5300640A8886989084306432680A88966
:1032700029890843208105B0BDE8F08341F28831F7
:103280000160002181804BF6FF71C1800021018126
:1032900041814FF480418181704721B1028842F021
:1032A0000102028004E002884FF6FE731A40028099
:1032B000704721B1828842F40062828004E08288F3
:1032C0004FF2FF731A408280704721B1828842F426
:1032D0008052828004E082884EF6FF731A4082801A
:1032E000704721B1028842F48072028004E00288B3
:1032F0004FF6FF631A400280704721B1028842F402
:103300000072028004E002884FF6FF531A400280E8
:10331000704721B1028842F48062028004E0028892
:103320004FF6FF331A40028070470A460021818918
:103330004FF60173194002F0FE0319438181704773
:1033400021B1828942F00102828104E082894FF634
:10335000FE731A408281704721B1028842F0400218
:10336000028004E002884FF6BF731A400280704763
:103370001AB183880B43838002E083888B43838068
:103380007047018270470146088AC0B2704712B187
:1033900041F0010102E04FF6FE73194001827047CF
:1033A00008B5024600200090009200980844009062
:1033B0000098008808BD21B1028842F400420280D2
:1033C00003E00288C2F30E0202807047B1F5006F7D
:1033D00004D1028842F40062028004E002884FF2C5
:1033E000FF731A4002807047B1F5005F04D1028874
:1033F00042F40052028004E002884DF6FF731A4046
:103400000280704721B1028842F48052028004E0B9
:1034100002884EF6FF731A4002807047B1F5006FC4
:1034200004D1028842F40062028004E002884FF274
:10343000FF731A400280704721B1028842F02002D7
:10344000028004E002884FF6DF731A400280704762
:103450000146088B0012704721B1028842F0100229
:10346000028004E002884FF6EF731A400280704732
:1034700021B9028842F08002028004E002884FF6FF
:103480007F731A4002807047B1F5804F05D0828B60
:103490004BF6FF731A40828303E0828B42F4804232
:1034A0008283704770B50246002400250023002067
:1034B000958A138B1B0445EA030626F07F4404EA31
:1034C00001068E4201D1012000E0002070BD10B540
:1034D00001460020002300228B8A0A8B120443EA53
:1034E000020424F07F4010BD0CB5024600200023EA
:1034F0000193009300920B0F019321F07F41019BF8
:103500001BB1009B1433009303E0090C009B18339C
:103510000093009B1B680B400BB1012000E00020D2
:103520000CBD002221F07F42D3438382704730B527
:10353000024600200023948801F0E06504EA154368
:1035400021F07F41948A0C4054B14BB1012008E036
:103550000054004000127A0040420F00A086010093
:10356000002030BD002221F07F42D3438382704788
:1035700010B50446FA48844208D101214015FEF7EF
:1035800099FC00216015FEF795FC17E0F548844290
:1035900008D101210015FEF78DFC00212015FEF752
:1035A00089FC0BE0F048844208D10121C803FEF7F2
:1035B00081FC00214FF40040FEF77CFC10BD30B5CB
:1035C0000246002000235068E84C20400D790C682A
:1035D00044EA0524204350609068E54C2040D1E93E
:1035E00002542C434D7944EA450420439060D06A4C
:1035F00020F470000C7C641EE4B2234340EA0350C4
:10360000D06230BD00210160017141718160C160F3
:1036100001210174704721B1826842F00102826089
:1036200003E0826822F001028260704721B1826863
:1036300042F48072826003E0826822F480728260C9
:10364000704710B50023CBB21AB144681C434460E4
:1036500002E044689C43446010BD816841F0080169
:1036600081607047014600208A6802F008020AB1B2
:10367000012000E000207047816841F00401816072
:103680007047014600208A6802F004020AB1012056
:1036900000E00020704721B1826842F4A0028260FD
:1036A00003E0826822F4A002826070470146002095
:1036B0008A6802F480020AB1012000E0002070470D
:1036C00010B50A4600210023416821F46041531ED1
:1036D00041EA4331416010BD21B1426842F40062C9
:1036E000426003E0426822F4006242607047F0B535
:1036F00004460D4600200021092D11DDE068A5F1EA
:103700000A0606EB4607072606FA07F18843A5F1E5
:103710000A0606EB460603FA06F10843E0600CE0F1
:10372000206905EB4507072606FA07F1884305EBF4
:10373000450603FA06F108432061072A0FDA606B99
:10374000561E06EB86071F2606FA07F18843561E0B
:1037500006EB860605FA06F10843606322E00D2AAF
:103760000FDA206BD61F06EB86071F2606FA07F135
:103770008843D61F06EB860605FA06F10843206348
:1037800010E0E06AA2F10D0606EB86071F2606FA96
:1037900007F18843A2F10D0606EB860605FA06F14D
:1037A0000843E062F0BD21B1826842F48012826079
:1037B00003E0826822F48012826070470146C86C80
:1037C00080B2704766484C300068704721B142684B
:1037D00042F48062426003E0426822F48062426008
:1037E000704721B1426842F48052426003E042686F
:1037F00022F48052426070470A460021816821F419
:10380000E04111438160704721B1826842F4004277
:10381000826003E0826822F400428260704721B136
:10382000826842F40212826003E0826822F402128B
:1038300082607047014600208A6802F400120AB1D3
:10384000012000E000207047F0B504461546002036
:1038500000220026092911DDE068A1F10A0707EB23
:10386000470C072707FA0CF29043A1F10A0707EB70
:10387000470703FA07F21043E0600CE0206901EB10
:10388000410C072707FA0CF2904301EB410703FABA
:1038900007F210432061A06BC0F30156EF1C06F144
:1038A000010CA7EB0C0707EB870C1F2707FA0CF29C
:1038B0009043EF1C06F1010CA7EB0C0707EB870701
:1038C00001FA07F21043A063F0BD10B50A460021CB
:1038D0000023816B21F44011531E41EA035181639F
:1038E00010BD08B5002300930090009B0B4400938B
:1038F000009B1A6008BD08B50246002000900092A7
:1039000001F12800009B184400900098006880B2E4
:1039100008BD0A4600214168164B19401143416019
:1039200070474162826270470A460021416821F077
:103930001F0111434160704740B1094908310968CE
:1039400041F40001064A0832116007E004490831D9
:10395000096821F40001024A083211607047000032
:103960000024014000280140003C0140FFFEF0FF20
:10397000FDF7F1FFFFFD3FFF0246002013680B40FB
:103980000BB1012000E000207047CA43026070477D
:1039900070B502460020002300240B125568CEB2F9
:1039A00005EA060415681D4015B10CB1012000E0C0
:1039B000002070BD00220A12D3430360704700004C
:1039C0000CB50020019000906C48006840F48030F5
:1039D0006A49086000BF6948006800F40030009040
:1039E0000198401C0190009818B90198B0F5A06F9B
:1039F000F1D16248006800F4003010B1012000905D
:103A000001E0002000900098012843D15C48006844
:103A100040F010005A4908600846006820F0030092
:103A200008600846006840F002000860534840689B
:103A3000524948600846406848600846406840F47B
:103A4000806048600846406820F47C104860084662
:103A5000406840F4E81048600846006840F0807014
:103A6000086000BF4548006800F000700028F9D0E9
:103A70004248406820F003004049486008464068DA
:103A800040F00200486000BF3C48406800F00C0075
:103A90000828F9D10CBD10B5FFF792FF10BD10B585
:103AA0003648006840F00100344908600846406824
:103AB00034490840314948600846006832490840A6
:103AC0002E4908600846006820F4802008600846F7
:103AD000406820F4FE0048604FF41F008860FFF744
:103AE000DAFF4FF000602949086010BD10B50021D1
:103AF00000200022214B5B6803F00C0121B1042956
:103B000006D0082928D107E0214B224C236027E06A
:103B10001F4B204C236023E0184B5B6803F47010AC
:103B2000164B5B6803F48032022303EB904022B90A
:103B3000194B4343174C23600DE0104B5B6803F4B3
:103B4000003323B1144B4343124C236003E0104B6A
:103B50004343104C236003E00D4B0E4C236000BF29
:103B600000BF064B5B68C3F303130C4CE15C094BCD
:103B70001B68CB40074C236010BD000000100240C2
:103B8000002002400000FFF8FFFFF6FE08ED00E015
:103B900000127A003405002000093D00380500209D
:103BA0000948804709480047FEE7FEE7FEE7FEE7D1
:103BB000FEE7FEE7FEE7FEE7FEE7FEE7044805490D
:103BC000054A064B704700009F3A0008ED000008C8
:103BD00050090020500F0020500B0020500B0020F7
:103BE0000FB41CB5074B06AA7B44694600900598A4
:103BF00000F0A5F90020694600F0B4F91CBC5DF89E
:103C000014FB00007903000070B504468569006864
:103C1000C10601D5302600E02026C00707D070BDC0
:103C2000D4E9012130469047206A401C20626D1E75
:103C3000F6D570BD70B5044685690078C00707D118
:103C400070BDD4E9012120209047206A401C2062E9
:103C50006D1EF6D570BD00002DE9F041064600242A
:103C600010687529314616A510D0AFF300800028E2
:103C700002DA404213A507E031688A0701D512A590
:103C800002E0490704D511A5012401E0AFF300804B
:103C900000210A2206F1240709E0B0FBF2FCB0FB88
:103CA000F2F302FB1C00303078541846491C0028FF
:103CB000F3D123462A463046BDE8F04100F0E1B892
:103CC000000000002D0000002B000000200000007C
:103CD0002DE9F05F894604464FF0000ADFF874B121
:103CE000FB44C0F820A02046E1688847002874D033
:103CF000252806D0D4E901219047206A401C206283
:103D0000F1E700265F462046E168884720280546FF
:103D100007DB312D05D2781910F8200C08B10643C5
:103D2000F1E7B00701D526F00406C4F81CA000276F
:103D3000C4F818A02A2D09D0284600F04EF938B34F
:103D400004EB8708303DC8F8185019E059F8041BF7
:103D5000204604EB87029161E1688847012F054600
:103D600018D1E069002820DA26F020061DE0D8F8F6
:103D7000180000EB800005EB40003038C8F8180050
:103D80002046E1688847054600F027F90028EED173
:103D9000012F0AD02E2D08D12046E16888477F1CCC
:103DA0000546022F46F02006C4DBA069002803DA8E
:103DB000404246F00106A061F00701D026F010064F
:103DC0006C2D0BD0682D09D04C2D39D06A2D35D0F3
:103DD000742D35D07A2D33D016E038E0E1682F46C7
:103DE00020468847B842054609D16C2F26D04FF4AB
:103DF0008060E168064320468847054604E06C2F52
:103E00001AD04FF4807006430DB3A5F14100192874
:103E100002D8203546F400664A46294620462660E8
:103E20004E46FCF7BDF980B101280BD0F61D26F0F7
:103E3000070000F1080956E74020E4E78020D8E7B2
:103E40000020D6E706F104094DE7284652E7206A2C
:103E5000BDE8F09F1C0B000030B505460B462A4616
:103E600013F8014B12F8010B08B1A042F8D01CB1B5
:103E7000002802D06D1CF1E7284630BD704770471E
:103E800070472DE9F0470D4699469246044600F1E9
:103E900024080168880604D5E06921F0100121603A
:103EA00000E00120A84201DD471B00E00027A169D6
:103EB0007A1902EB0900081AA0612078C00602D422
:103EC0002046FFF7A1FE002608E0D4E901211AF8F8
:103ED00006009047206A401C761C20624E45F4DBA9
:103EE0002078C0060AD52046FFF78EFE06E0D4E90A
:103EF000012130209047206A401C2062381EA7F123
:103F00000107F4DC07E0D4E9012118F80500904727
:103F1000206A401C2062281EA5F10105F3DC204622
:103F2000FFF788FE2078000602D50220BDE8F08762
:103F30000120FBE701694A1C02610878704700B55F
:103F40008FB0CDE901310021059105497944CDE9D2
:103F5000031011466846FFF7BBFE0FB000BD00001E
:103F6000E5FFFFFF0A6802F8010B0A60704775461B
:103F700000F028F8AE4605006946534620F00700D9
:103F8000854618B020B5FFF719FEBDE820404FF078
:103F900000064FF000074FF000084FF0000B21F033
:103FA0000701AC46ACE8C009ACE8C009ACE8C00900
:103FB000ACE8C0098D4670470446AFF30080204648
:103FC000FCF700F900487047EC0800200149182070
:103FD000ABBEFEE726000200704730380A2801D247
:103FE0000120704700207047000000000000000022
:103FF000002F000000000700070000147F147F144A
:1040000000242A7F2A1200626408132300364955CF
:10401000225000000503000000001C2241000000A7
:1040200041221C000014083E08140008083E08083D
:10403000000000A060000008080808080000606098
:104040000000002010080402003E5149453E0000D7
:10405000427F4000004261514946002141454B31B9
:10406000001814127F10002745454539003C4A4985
:1040700049300001710905030036494949360006F7
:104080004949291E0000363600000000563600005F
:1040900000081422410000141414141400004122DA
:1040A000140800020151090600324959513E007CB2
:1040B0001211127C007F49494936003E414141229C
:1040C000007F4141221C007F49494941007F090985
:1040D0000901003E4149497A007F0808087F000035
:1040E000417F4100002040413F01007F08142241F0
:1040F000007F40404040007F020C027F007F0408A8
:10410000107F003E4141413E007F09090906003E03
:104110004151215E007F091929460046494949312C
:104120000001017F0101003F4040403F001F20404F
:10413000201F003F4038403F00631408146300070D
:104140000870080700615149454300007F41410064
:1041500000552A552A55000041417F000004020104
:1041600002040040404040400000010204000020E2
:1041700054545478007F4844443800384444442020
:1041800000384444487F00385454541800087E09CD
:1041900001020018A4A4A47C007F08040478000095
:1041A000447D4000004080847D00007F1028440052
:1041B0000000417F4000007C04180478007C080463
:1041C000047800384444443800FC2424241800189F
:1041D000242418FC007C080404080048545454208B
:1041E00000043F444020003C4040207C001C204014
:1041F000201C003C4030403C004428102844001C57
:10420000A0A0A07C004464544C441414141414144E
:10421000000000000000000000000000000000009E
:10422000000000F800000000000000333000000033
:1042300000100C06100C060000000000000000003A
:1042400040C07840C0784000043F04043F040400AC
:10425000007088FC08300000001820FF211E0000BC
:10426000F008F000E018000000211C031E211E00D1
:1042700000F00888700000001E2123241927211057
:1042800010160E00000000000000000000000000FA
:10429000000000E0180402000000000718204000A1
:1042A00000020418E0000000004020180700000091
:1042B000404080F0804040000202010F01020200F5
:1042C000000000F0000000000101011F01010100D9
:1042D000000000000000000080B07000000000003E
:1042E00000000000000000000001010101010101C7
:1042F000000000000000000000303000000000005E
:104300000000000080601804006018060100000032
:1043100000E010080810E000000F102020100F002F
:10432000001010F8000000000020203F20200000B6
:10433000007008080888700000302824222130000E
:1043400000300888884830000018202020110E0016
:104350000000C02010F8000000070424243F2400BF
:1043600000F80888880808000019212020110E0094
:1043700000E0108888180000000F112020110E00A6
:1043800000380808C83808000000003F000000009E
:104390000070880808887000001C222121221C005F
:1043A00000E010080810E0000000312222110F0088
:1043B000000000C0C000000000000030300000001D
:1043C000000000800000000000008060000000008D
:1043D00000008040201008000001020408102000A6
:1043E00040404040404040000404040404040400F1
:1043F0000008102040800000002010080402010086
:10440000007048080808F000000000303601000085
:10441000C030C828E810E0000718272423140B0038
:104420000000C038E0000000203C230202273820B2
:1044300008F8888888700000203F202020110E0096
:10444000C03008080808380007182020201008008D
:1044500008F808080810E000203F202020100F0076
:1044600008F88888E8081000203F20202320180042
:1044700008F88888E8081000203F200003000000AA
:10448000C03008080838000007182020221E02004B
:1044900008F808000008F808203F210101213F200A
:1044A000000808F8080800000020203F2020000035
:1044B00000000808F8080800C08080807F00000025
:1044C00008F888C028180800203F2001263820005E
:1044D00008F8080000000000203F202020203000C5
:1044E00008F8F800F8F80800203F003F003F2000DF
:1044F00008F830C00008F808203F200007183F00E7
:10450000E01008080810E0000F10202020100F0015
:1045100008F808080808F000203F21010101000008
:10452000E01008080810E0000F18242438504F004D
:1045300008F8888888887000203F2000030C30200D
:1045400000708808080838000038202121221C004B
:10455000180808F8080818000000203F2000000094
:1045600008F808000008F808001F202020201F007D
:104570000878880000C83808000007380E010000DD
:10458000F80800F80008F800033C0700073C0300A7
:10459000081868808068180820302C03032C30200D
:1045A0000838C800C83808000000203F200000007C
:1045B00010080808C83808002038262120201800D4
:1045C000000000FE020202000000007F40404000A8
:1045D000000C30C000000000000000010638C000E0
:1045E00000020202FE000000004040407F00000088
:1045F00000000402020204000000000000000000AD
:1046000000000000000000008080808080808080AA
:104610000002020400000000000000000000000092
:1046200000008080808000000019242222223F2088
:1046300008F8008080000000003F112020110E00CB
:104640000000008080800000000E1120202011005A
:10465000000000808088F800000E112020103F200C
:104660000000808080800000001F22222222130090
:10467000008080F0888888180020203F20200000DB
:104680000000808080808000006B94949493600090
:1046900008F8008080800000203F210000203F209B
:1046A00000809898000000000020203F202000009B
:1046B000000000809898000000C08080807F00008B
:1046C00008F8000080808000203F24022D30200068
:1046D000000808F8000000000020203F2020000013
:1046E0008080808080808000203F20003F20003F2D
:1046F0008080008080800000203F210000203F203B
:104700000000808080800000001F202020201F00EB
:10471000808000808000000080FFA12020110E001A
:104720000000008080808000000E112020A0FF800B
:10473000808080008080800020203F2120000100B8
:10474000000080808080800000332424242419000D
:10475000008080E0808000000000001F202000001A
:104760008080000000808000001F202020103F205B
:10477000808080000080808000010E3008060100EB
:1047800080800080008080800F300C030C300F0090
:1047900000808000808080000020312E0E312000BB
:1047A000808080000080808080818E7018060100EB
:1047B00000808080808080000021302C2221300009
:1047C00000000000807C020200000000003F40402A
:1047D00000000000FF00000000000000FF000000DB
:1047E0000002027C800000000040403F000000000A
:1047F00000060101020204040000000000000000A5
:104800000400000800000000000000020001000099
:104810001000000034480008000000204805000097
:1048200028010008404A000848050020080A000046
:10483000840100080110021001200F0202FAFAAAF6
:10484000AAFFFFAAAAFAFA0202100F4272723A7A7B
:10485000424B5B5262621377661016203C1CFFFFCE
:10486000B0B424243F3FE4E4242420020203FFFFE9
:10487000280A01051D59C1FF7F01014F500CF8F8AE
:10488000484C4F4B4A4848F8F84CFFFF440119295F
:10489000112C202424381009243010FFFF10F0F0D0
:1048A0001010081C1F0B0C0D4F6E341C0F23607F63
:1048B0003F180880C060F8FF07023546E0703C1CD6
:1048C00008200D7F7F0406033F7F4040407878102A
:1048D0000A03050911FF118905C312E012F04962AC
:1048E00021073D4428FF11AA44700B8301384482FC
:1048F00092927401831E7C44C7017D01990519C100
:10490000419A01028139FB013C69419949FA01014F
:10491000A12A4001212A6D01212A60017915016433
:104920002ADB010915072ADA01212AD801212AC028
:10493000010915072A800101352A06010918071CFB
:10494000E66620076A86157A861C2A8601180A8080
:10495000808686068686C0C00C0E1C0606D0307681
:104960004D2907013113601C12FE1301021009C406
:104970001820029E63B20E1DFF8181FFF244403079
:104980000F12FF180923EAAABFAAEA033F0B012D61
:10499000BC808080080115240E0C082A01013149D1
:1049A000041D81808081021901B9170611010109D6
:1049B0000C0E0A14C0012178081E21404050215ECF
:1049C00008012A4DFFFFC1C10409232D881580FC71
:1049D000F3EFF3FC80FF80EEEEEEF5FBFF9CBEB63E
:1049E000B6883A13021244050B0215846AE873165E
:1049F000039BEA020A200D051FF5010338AA020AEB
:104A000003051F3C034B5F0A12013C037B680A123B
:104A1000023C032B310A12033C031B060A12043C1E
:104A2000038B830A12054403BBB42D010203040463
:104A30001009060708090204060884A24A04691836
:04000005080000ED02
:00000001FF
